{
  "contractName": "newUniv",
  "abi": [
    {
      "inputs": [
        {
          "name": "_UnivName",
          "type": "string"
        },
        {
          "name": "_representativeNum",
          "type": "uint256"
        },
        {
          "name": "_sender",
          "type": "address"
        }
      ],
      "payable": false,
      "stateMutability": "nonpayable",
      "type": "constructor"
    },
    {
      "constant": false,
      "inputs": [
        {
          "name": "_studentAddress",
          "type": "address"
        }
      ],
      "name": "addAddress",
      "outputs": [],
      "payable": false,
      "stateMutability": "nonpayable",
      "type": "function"
    },
    {
      "constant": false,
      "inputs": [
        {
          "name": "_votingAgenda",
          "type": "string"
        },
        {
          "name": "_sender",
          "type": "address"
        },
        {
          "name": "_amount",
          "type": "uint256"
        }
      ],
      "name": "createVote",
      "outputs": [],
      "payable": false,
      "stateMutability": "nonpayable",
      "type": "function"
    },
    {
      "constant": true,
      "inputs": [],
      "name": "getsender",
      "outputs": [
        {
          "name": "",
          "type": "address"
        }
      ],
      "payable": false,
      "stateMutability": "view",
      "type": "function"
    },
    {
      "constant": false,
      "inputs": [
        {
          "name": "_agree",
          "type": "bool"
        },
        {
          "name": "_sender",
          "type": "address"
        }
      ],
      "name": "doVote",
      "outputs": [],
      "payable": false,
      "stateMutability": "nonpayable",
      "type": "function"
    },
    {
      "constant": false,
      "inputs": [],
      "name": "updateVote",
      "outputs": [],
      "payable": false,
      "stateMutability": "nonpayable",
      "type": "function"
    },
    {
      "constant": true,
      "inputs": [],
      "name": "getVoteRes",
      "outputs": [
        {
          "name": "",
          "type": "uint256"
        },
        {
          "name": "",
          "type": "uint256"
        },
        {
          "name": "",
          "type": "uint256"
        }
      ],
      "payable": false,
      "stateMutability": "view",
      "type": "function"
    },
    {
      "constant": false,
      "inputs": [
        {
          "name": "_sender",
          "type": "address"
        }
      ],
      "name": "deposit",
      "outputs": [],
      "payable": true,
      "stateMutability": "payable",
      "type": "function"
    },
    {
      "constant": true,
      "inputs": [],
      "name": "getUnivBalance",
      "outputs": [
        {
          "name": "",
          "type": "uint256"
        }
      ],
      "payable": false,
      "stateMutability": "view",
      "type": "function"
    },
    {
      "constant": false,
      "inputs": [
        {
          "name": "_sender",
          "type": "address"
        }
      ],
      "name": "transfer",
      "outputs": [],
      "payable": false,
      "stateMutability": "nonpayable",
      "type": "function"
    },
    {
      "constant": false,
      "inputs": [
        {
          "name": "_hash",
          "type": "string"
        }
      ],
      "name": "registerImage",
      "outputs": [],
      "payable": false,
      "stateMutability": "nonpayable",
      "type": "function"
    },
    {
      "constant": true,
      "inputs": [
        {
          "name": "_i",
          "type": "uint256"
        }
      ],
      "name": "getImage",
      "outputs": [
        {
          "name": "",
          "type": "string"
        }
      ],
      "payable": false,
      "stateMutability": "view",
      "type": "function"
    },
    {
      "constant": true,
      "inputs": [],
      "name": "getIpfsCnt",
      "outputs": [
        {
          "name": "",
          "type": "uint256"
        }
      ],
      "payable": false,
      "stateMutability": "view",
      "type": "function"
    }
  ],
  "bytecode": "0x60806040526000600260146101000a81548163ffffffff021916908363ffffffff1602179055506000600d553480156200003857600080fd5b506040516200105638038062001056833981018060405260608110156200005e57600080fd5b8101908080516401000000008111156200007757600080fd5b828101905060208101848111156200008e57600080fd5b8151856001820283011164010000000082111715620000ac57600080fd5b505092919060200180519060200190929190805190602001909291905050508260009080519060200190620000e392919062000135565b508160018190555080600260006101000a81548173ffffffffffffffffffffffffffffffffffffffff021916908373ffffffffffffffffffffffffffffffffffffffff160217905550505050620001e4565b828054600181600116156101000203166002900490600052602060002090601f016020900481019282601f106200017857805160ff1916838001178555620001a9565b82800160010185558215620001a9579182015b82811115620001a85782518255916020019190600101906200018b565b5b509050620001b89190620001bc565b5090565b620001e191905b80821115620001dd576000816000905550600101620001c3565b5090565b90565b610e6280620001f46000396000f3fe6080604052600436106100a75760003560e01c80636f7a3175116100645780636f7a31751461027d57806371e6cc55146102da578063c53f29d8146103cc578063cd7193bd14610494578063d0158e2b146104bf578063f340fa0114610516576100a7565b80630e82e52a146100ac5780631a695230146100c35780632607aafa1461011457806338eada1c146101c8578063517cba9c146102195780636032474a14610244575b600080fd5b3480156100b857600080fd5b506100c161055a565b005b3480156100cf57600080fd5b50610112600480360360208110156100e657600080fd5b81019080803573ffffffffffffffffffffffffffffffffffffffff1690602001909291905050506105be565b005b34801561012057600080fd5b5061014d6004803603602081101561013757600080fd5b8101908080359060200190929190505050610719565b6040518080602001828103825283818151815260200191508051906020019080838360005b8381101561018d578082015181840152602081019050610172565b50505050905090810190601f1680156101ba5780820380516001836020036101000a031916815260200191505b509250505060405180910390f35b3480156101d457600080fd5b50610217600480360360208110156101eb57600080fd5b81019080803573ffffffffffffffffffffffffffffffffffffffff1690602001909291905050506107d2565b005b34801561022557600080fd5b5061022e610959565b6040518082815260200191505060405180910390f35b34801561025057600080fd5b50610259610963565b60405180848152602001838152602001828152602001935050505060405180910390f35b34801561028957600080fd5b506102d8600480360360408110156102a057600080fd5b81019080803515159060200190929190803573ffffffffffffffffffffffffffffffffffffffff169060200190929190505050610984565b005b3480156102e657600080fd5b506103ca600480360360608110156102fd57600080fd5b810190808035906020019064010000000081111561031a57600080fd5b82018360208201111561032c57600080fd5b8035906020019184600183028401116401000000008311171561034e57600080fd5b91908080601f016020809104026020016040519081016040528093929190818152602001838380828437600081840152601f19601f820116905080830192505050505050509192919290803573ffffffffffffffffffffffffffffffffffffffff16906020019092919080359060200190929190505050610bcd565b005b3480156103d857600080fd5b50610492600480360360208110156103ef57600080fd5b810190808035906020019064010000000081111561040c57600080fd5b82018360208201111561041e57600080fd5b8035906020019184600183028401116401000000008311171561044057600080fd5b91908080601f016020809104026020016040519081016040528093929190818152602001838380828437600081840152601f19601f820116905080830192505050505050509192919290505050610c90565b005b3480156104a057600080fd5b506104a9610ce4565b6040518082815260200191505060405180910390f35b3480156104cb57600080fd5b506104d4610d03565b604051808273ffffffffffffffffffffffffffffffffffffffff1673ffffffffffffffffffffffffffffffffffffffff16815260200191505060405180910390f35b6105586004803603602081101561052c57600080fd5b81019080803573ffffffffffffffffffffffffffffffffffffffff169060200190929190505050610d0b565b005b600360040154421115610586576000600360010160006101000a81548160ff0219169083151502179055505b600260036002015402600380600301540211156105bc576001600360050160006101000a81548160ff0219169083151502179055505b565b600360050160009054906101000a900460ff166105da57600080fd5b600260009054906101000a900473ffffffffffffffffffffffffffffffffffffffff1673ffffffffffffffffffffffffffffffffffffffff168173ffffffffffffffffffffffffffffffffffffffff161461063457600080fd5b600360060154610642610ce4565b1161064c57600080fd5b600073ffffffffffffffffffffffffffffffffffffffff16600260009054906101000a900473ffffffffffffffffffffffffffffffffffffffff1673ffffffffffffffffffffffffffffffffffffffff1614156106a857600080fd5b600260009054906101000a900473ffffffffffffffffffffffffffffffffffffffff1673ffffffffffffffffffffffffffffffffffffffff166108fc6003600601549081150290604051600060405180830381858888f19350505050158015610715573d6000803e3d6000fd5b5050565b6060600c828154811061072857fe5b906000526020600020018054600181600116156101000203166002900480601f0160208091040260200160405190810160405280929190818152602001828054600181600116156101000203166002900480156107c65780601f1061079b576101008083540402835291602001916107c6565b820191906000526020600020905b8154815290600101906020018083116107a957829003601f168201915b50505050509050919050565b600260149054906101000a900463ffffffff1663ffffffff16600154116107f857600080fd5b6002601481819054906101000a900463ffffffff168092919060010191906101000a81548163ffffffff021916908363ffffffff1602179055505061083b610d68565b81816000019073ffffffffffffffffffffffffffffffffffffffff16908173ffffffffffffffffffffffffffffffffffffffff168152505080600a60008473ffffffffffffffffffffffffffffffffffffffff1673ffffffffffffffffffffffffffffffffffffffff16815260200190815260200160002060008201518160000160006101000a81548173ffffffffffffffffffffffffffffffffffffffff021916908373ffffffffffffffffffffffffffffffffffffffff1602179055509050506001600b60008473ffffffffffffffffffffffffffffffffffffffff1673ffffffffffffffffffffffffffffffffffffffff16815260200190815260200160002060006101000a81548160ff0219169083151502179055505050565b6000600d54905090565b60008060006003800154600360020154600360060154925092509250909192565b8060011515600b60008373ffffffffffffffffffffffffffffffffffffffff1673ffffffffffffffffffffffffffffffffffffffff16815260200190815260200160002060009054906101000a900460ff161515146109e257600080fd5b600a60008373ffffffffffffffffffffffffffffffffffffffff1673ffffffffffffffffffffffffffffffffffffffff16815260200190815260200160002060010160036000016040518082805460018160011615610100020316600290048015610a845780601f10610a62576101008083540402835291820191610a84565b820191906000526020600020905b815481529060010190602001808311610a70575b5050915050908152602001604051809103902060009054906101000a900460ff16158015610ac15750600360010160009054906101000a900460ff165b610aca57600080fd5b6003600201600081548092919060010191905055506001600a60008473ffffffffffffffffffffffffffffffffffffffff1673ffffffffffffffffffffffffffffffffffffffff16815260200190815260200160002060010160036000016040518082805460018160011615610100020316600290048015610b835780601f10610b61576101008083540402835291820191610b83565b820191906000526020600020905b815481529060010190602001808311610b6f575b5050915050908152602001604051809103902060006101000a81548160ff0219169083151502179055508215610bc85760038001600081548092919060010191905055505b505050565b8160011515600b60008373ffffffffffffffffffffffffffffffffffffffff1673ffffffffffffffffffffffffffffffffffffffff16815260200190815260200160002060009054906101000a900460ff16151514610c2b57600080fd5b8360036000019080519060200190610c44929190610d91565b506001600360010160006101000a81548160ff0219169083151502179055504260036004018190555081610c76610ce4565b11610c8057600080fd5b8160036006018190555050505050565b600c819080600181540180825580915050906001820390600052602060002001600090919290919091509080519060200190610ccd929190610d91565b5050600d6000815480929190600101919050555050565b60003073ffffffffffffffffffffffffffffffffffffffff1631905090565b600033905090565b600260009054906101000a900473ffffffffffffffffffffffffffffffffffffffff1673ffffffffffffffffffffffffffffffffffffffff168173ffffffffffffffffffffffffffffffffffffffff1614610d6557600080fd5b50565b6040518060200160405280600073ffffffffffffffffffffffffffffffffffffffff1681525090565b828054600181600116156101000203166002900490600052602060002090601f016020900481019282601f10610dd257805160ff1916838001178555610e00565b82800160010185558215610e00579182015b82811115610dff578251825591602001919060010190610de4565b5b509050610e0d9190610e11565b5090565b610e3391905b80821115610e2f576000816000905550600101610e17565b5090565b9056fea165627a7a7230582059ee4ab71e89677771f1e550de5bf9cf56c5aa03a26c93daee9d6501a66248c50029",
  "source": "pragma solidity ^0.5.0;\r\n\r\ncontract newUniv{\r\n\r\n    string univName;\r\n    uint representativeNum;\r\n    address payable admin;\r\n    uint32 addressCount = 0;\r\n\r\n    // 웹에서 보내는 정보를 토대로 스마트 컨트랙트를 배포할 것이기 때문에 인자를 받아와야 한다\r\n    constructor(string memory _UnivName, uint _representativeNum, address payable _sender) public {\r\n        univName = _UnivName;\r\n        representativeNum = _representativeNum;\r\n        admin = _sender;\r\n    }\r\n\r\n    struct Vote {\r\n        string agenda;\r\n        bool ing;\r\n        uint votingCnt;\r\n        uint agreeCnt;\r\n        uint timeStamp;\r\n        bool pass;\r\n        uint amount;\r\n    }\r\n    \r\n    Vote vote;\r\n\r\n    struct Executive {\r\n        address studentAddress;\r\n        mapping(string => bool) checkVote;\r\n    }\r\n    \r\n    mapping(address => Executive) inExecutives;\r\n    mapping(address => bool) isExecutives;\r\n\r\n    modifier onlyExecutives(address sender) {\r\n        require(isExecutives[sender] == true);\r\n        _;\r\n    }\r\n    \r\n    function addAddress(address _studentAddress) public {\r\n        require(representativeNum > addressCount);\r\n        addressCount++;\r\n        Executive memory newExecutive;\r\n        newExecutive.studentAddress = _studentAddress;\r\n        inExecutives[_studentAddress] = newExecutive;\r\n        isExecutives[_studentAddress] = true;\r\n    }\r\n    \r\n    function createVote(string memory _votingAgenda, address _sender, uint _amount) public onlyExecutives(_sender) {\r\n        vote.agenda = _votingAgenda;\r\n        vote.ing = true;\r\n        vote.timeStamp = now;\r\n        require(getUnivBalance() > _amount);\r\n        vote.amount=_amount;\r\n    }\r\n    \r\n    function getsender() public view returns(address){\r\n        return msg.sender;\r\n    }\r\n        \r\n    function doVote(bool _agree, address _sender) public onlyExecutives(_sender){\r\n        require(!inExecutives[_sender].checkVote[vote.agenda] && vote.ing);\r\n        vote.votingCnt++;\r\n        inExecutives[_sender].checkVote[vote.agenda]=true;\r\n        if(_agree) {\r\n            vote.agreeCnt++;\r\n        }\r\n    }\r\n    \r\n    function updateVote() public { //새로고침 => 투표 종료\r\n        if(now > vote.timeStamp) {\r\n            vote.ing = false;\r\n        }\r\n        if(vote.agreeCnt * 3 > vote.votingCnt * 2) {\r\n            vote.pass = true;\r\n        }\r\n        \r\n    }\r\n    \r\n    function getVoteRes() public view returns(uint, uint, uint) {\r\n        return (vote.agreeCnt, vote.votingCnt, vote.amount);\r\n    }\r\n    \r\n    function deposit(address _sender) public payable{\r\n        require(_sender == admin);\r\n    }\r\n        \r\n    function getUnivBalance() public view returns (uint) {\r\n        return address(this).balance;\r\n    }\r\n\r\n    function transfer(address _sender) public {\r\n        require(vote.pass);\r\n        require(_sender == admin);\r\n        require(getUnivBalance() > vote.amount);\r\n        require(admin != address(0));\r\n        admin.transfer(vote.amount);\r\n    }\r\n\r\n    string[] ipfsImages;\r\n    uint ipfsImgCnt=0;\r\n    \r\n    function registerImage(string memory _hash) public { \r\n        ipfsImages.push(_hash);\r\n        ipfsImgCnt++;\r\n    }\r\n\r\n    function getImage(uint _i) public view returns(string memory) { \r\n        return ipfsImages[_i];\r\n    }\r\n\r\n    function getIpfsCnt() public view returns(uint) { \r\n        return (ipfsImgCnt);\r\n    }\r\n}",
  "sourcePath": "D:\\블록체인스터디\\founders_2019\\최종제출본(학생회비관리)\\ipfs_new\\contracts\\newUniv.sol",
  "compiler": {
    "name": "solc",
    "version": "0.5.8+commit.23d335f2.Emscripten.clang"
  },
  "schemaVersion": "3.0.11",
  "updatedAt": "2019-08-12T11:52:35.940Z",
  "devdoc": {
    "methods": {}
  },
  "userdoc": {
    "methods": {}
  }
}