{
  "contractName": "UnivLedger",
  "abi": [
    {
      "inputs": [],
      "payable": false,
      "stateMutability": "nonpayable",
      "type": "constructor"
    },
    {
      "constant": false,
      "inputs": [
        {
          "name": "_UnivName",
          "type": "string"
        },
        {
          "name": "_representativeNum",
          "type": "uint256"
        }
      ],
      "name": "registerUniv",
      "outputs": [],
      "payable": true,
      "stateMutability": "payable",
      "type": "function"
    },
    {
      "constant": true,
      "inputs": [
        {
          "name": "_UnivName",
          "type": "string"
        }
      ],
      "name": "getUnivAddress",
      "outputs": [
        {
          "name": "",
          "type": "address"
        }
      ],
      "payable": false,
      "stateMutability": "view",
      "type": "function"
    },
    {
      "constant": false,
      "inputs": [
        {
          "name": "_univAdd",
          "type": "address"
        }
      ],
      "name": "child_deposit",
      "outputs": [],
      "payable": false,
      "stateMutability": "nonpayable",
      "type": "function"
    },
    {
      "constant": false,
      "inputs": [
        {
          "name": "_univAdd",
          "type": "address"
        },
        {
          "name": "_studentAddress",
          "type": "address"
        }
      ],
      "name": "child_addAddress",
      "outputs": [],
      "payable": false,
      "stateMutability": "nonpayable",
      "type": "function"
    },
    {
      "constant": false,
      "inputs": [
        {
          "name": "_univAdd",
          "type": "address"
        },
        {
          "name": "_votingAgenda",
          "type": "string"
        },
        {
          "name": "_amount",
          "type": "uint256"
        }
      ],
      "name": "child_createVote",
      "outputs": [],
      "payable": false,
      "stateMutability": "nonpayable",
      "type": "function"
    },
    {
      "constant": false,
      "inputs": [
        {
          "name": "_univAdd",
          "type": "address"
        },
        {
          "name": "_agree",
          "type": "bool"
        }
      ],
      "name": "child_doVote",
      "outputs": [],
      "payable": false,
      "stateMutability": "nonpayable",
      "type": "function"
    },
    {
      "constant": false,
      "inputs": [
        {
          "name": "_univAdd",
          "type": "address"
        }
      ],
      "name": "child_updateVote",
      "outputs": [],
      "payable": false,
      "stateMutability": "nonpayable",
      "type": "function"
    },
    {
      "constant": false,
      "inputs": [
        {
          "name": "_univAdd",
          "type": "address"
        }
      ],
      "name": "child_transfer",
      "outputs": [],
      "payable": false,
      "stateMutability": "nonpayable",
      "type": "function"
    },
    {
      "constant": true,
      "inputs": [
        {
          "name": "_univAdd",
          "type": "address"
        }
      ],
      "name": "child_voteRes",
      "outputs": [
        {
          "name": "",
          "type": "uint256"
        },
        {
          "name": "",
          "type": "uint256"
        },
        {
          "name": "",
          "type": "uint256"
        }
      ],
      "payable": false,
      "stateMutability": "view",
      "type": "function"
    },
    {
      "constant": true,
      "inputs": [
        {
          "name": "_univAdd",
          "type": "address"
        }
      ],
      "name": "getadd",
      "outputs": [
        {
          "name": "",
          "type": "address"
        }
      ],
      "payable": false,
      "stateMutability": "view",
      "type": "function"
    },
    {
      "constant": false,
      "inputs": [
        {
          "name": "_univAdd",
          "type": "address"
        },
        {
          "name": "_hash",
          "type": "string"
        }
      ],
      "name": "child_registerImage",
      "outputs": [],
      "payable": false,
      "stateMutability": "nonpayable",
      "type": "function"
    },
    {
      "constant": true,
      "inputs": [
        {
          "name": "_univAdd",
          "type": "address"
        },
        {
          "name": "_i",
          "type": "uint256"
        }
      ],
      "name": "child_getImage",
      "outputs": [
        {
          "name": "",
          "type": "string"
        }
      ],
      "payable": false,
      "stateMutability": "view",
      "type": "function"
    }
  ],
  "bytecode": "0x6080604052670de0b6b3a764000060015534801561001c57600080fd5b50336000806101000a81548173ffffffffffffffffffffffffffffffffffffffff021916908373ffffffffffffffffffffffffffffffffffffffff160217905550612ba78061006c6000396000f3fe608060405260043610620000b65760003560e01c8063947cd044116200006d578063947cd0441462000371578063aa29c41c1462000406578063b3877a2614620004f5578063b8d069871462000556578063dab536d81462000665578063eefb2c38146200075e57620000b6565b80630defbe9a14620000bb578063117fac31146200013257806333011e75146200018757806357968c8e14620002525780638b25c35514620002c75780639411dc41146200031c575b600080fd5b348015620000c857600080fd5b506200010e60048036036020811015620000e157600080fd5b81019080803573ffffffffffffffffffffffffffffffffffffffff16906020019092919050505062000839565b60405180848152602001838152602001828152602001935050505060405180910390f35b3480156200013f57600080fd5b5062000185600480360360208110156200015857600080fd5b81019080803573ffffffffffffffffffffffffffffffffffffffff169060200190929190505050620009de565b005b62000250600480360360408110156200019f57600080fd5b8101908080359060200190640100000000811115620001bd57600080fd5b820183602082011115620001d057600080fd5b80359060200191846001830284011164010000000083111715620001f357600080fd5b91908080601f016020809104026020016040519081016040528093929190818152602001838380828437600081840152601f19601f8201169050808301925050505050505091929192908035906020019092919050505062000b3e565b005b3480156200025f57600080fd5b50620002c5600480360360408110156200027857600080fd5b81019080803573ffffffffffffffffffffffffffffffffffffffff169060200190929190803573ffffffffffffffffffffffffffffffffffffffff16906020019092919050505062000d5a565b005b348015620002d457600080fd5b506200031a60048036036020811015620002ed57600080fd5b81019080803573ffffffffffffffffffffffffffffffffffffffff16906020019092919050505062000ef2565b005b3480156200032957600080fd5b506200036f600480360360208110156200034257600080fd5b81019080803573ffffffffffffffffffffffffffffffffffffffff16906020019092919050505062001089565b005b3480156200037e57600080fd5b50620003c4600480360360208110156200039757600080fd5b81019080803573ffffffffffffffffffffffffffffffffffffffff16906020019092919050505062001220565b604051808273ffffffffffffffffffffffffffffffffffffffff1673ffffffffffffffffffffffffffffffffffffffff16815260200191505060405180910390f35b3480156200041357600080fd5b50620004f3600480360360408110156200042c57600080fd5b81019080803573ffffffffffffffffffffffffffffffffffffffff169060200190929190803590602001906401000000008111156200046a57600080fd5b8201836020820111156200047d57600080fd5b80359060200191846001830284011164010000000083111715620004a057600080fd5b91908080601f016020809104026020016040519081016040528093929190818152602001838380828437600081840152601f19601f8201169050808301925050505050505091929192905050506200130c565b005b3480156200050257600080fd5b5062000554600480360360408110156200051b57600080fd5b81019080803573ffffffffffffffffffffffffffffffffffffffff169060200190929190803515159060200190929190505050620014e0565b005b3480156200056357600080fd5b5062000623600480360360208110156200057c57600080fd5b81019080803590602001906401000000008111156200059a57600080fd5b820183602082011115620005ad57600080fd5b80359060200191846001830284011164010000000083111715620005d057600080fd5b91908080601f016020809104026020016040519081016040528093929190818152602001838380828437600081840152601f19601f82011690508083019250505050505050919291929050505062001684565b604051808273ffffffffffffffffffffffffffffffffffffffff1673ffffffffffffffffffffffffffffffffffffffff16815260200191505060405180910390f35b3480156200067257600080fd5b506200075c600480360360608110156200068b57600080fd5b81019080803573ffffffffffffffffffffffffffffffffffffffff16906020019092919080359060200190640100000000811115620006c957600080fd5b820183602082011115620006dc57600080fd5b80359060200191846001830284011164010000000083111715620006ff57600080fd5b91908080601f016020809104026020016040519081016040528093929190818152602001838380828437600081840152601f19601f8201169050808301925050505050505091929192908035906020019092919050505062001719565b005b3480156200076b57600080fd5b50620007bb600480360360408110156200078457600080fd5b81019080803573ffffffffffffffffffffffffffffffffffffffff169060200190929190803590602001909291905050506200192a565b6040518080602001828103825283818151815260200191508051906020019080838360005b83811015620007fd578082015181840152602081019050620007e0565b50505050905090810190601f1680156200082b5780820380516001836020036101000a031916815260200191505b509250505060405180910390f35b600080600083600073ffffffffffffffffffffffffffffffffffffffff16600460008373ffffffffffffffffffffffffffffffffffffffff1673ffffffffffffffffffffffffffffffffffffffff16815260200190815260200160002060009054906101000a900473ffffffffffffffffffffffffffffffffffffffff1673ffffffffffffffffffffffffffffffffffffffff161415620008d957600080fd5b600460008673ffffffffffffffffffffffffffffffffffffffff1673ffffffffffffffffffffffffffffffffffffffff16815260200190815260200160002060009054906101000a900473ffffffffffffffffffffffffffffffffffffffff1673ffffffffffffffffffffffffffffffffffffffff16636032474a6040518163ffffffff1660e01b815260040160606040518083038186803b1580156200097f57600080fd5b505afa15801562000994573d6000803e3d6000fd5b505050506040513d6060811015620009ab57600080fd5b81019080805190602001909291908051906020019092919080519060200190929190505050935093509350509193909250565b80600073ffffffffffffffffffffffffffffffffffffffff16600460008373ffffffffffffffffffffffffffffffffffffffff1673ffffffffffffffffffffffffffffffffffffffff16815260200190815260200160002060009054906101000a900473ffffffffffffffffffffffffffffffffffffffff1673ffffffffffffffffffffffffffffffffffffffff16141562000a7957600080fd5b600460008373ffffffffffffffffffffffffffffffffffffffff1673ffffffffffffffffffffffffffffffffffffffff16815260200190815260200160002060009054906101000a900473ffffffffffffffffffffffffffffffffffffffff1673ffffffffffffffffffffffffffffffffffffffff16630e82e52a6040518163ffffffff1660e01b8152600401600060405180830381600087803b15801562000b2157600080fd5b505af115801562000b36573d6000803e3d6000fd5b505050505050565b60015434101562000b4e57600080fd5b600082823360405162000b619062001b17565b80806020018481526020018373ffffffffffffffffffffffffffffffffffffffff1673ffffffffffffffffffffffffffffffffffffffff168152602001828103825285818151815260200191508051906020019080838360005b8381101562000bd857808201518184015260208101905062000bbb565b50505050905090810190601f16801562000c065780820380516001836020036101000a031916815260200191505b50945050505050604051809103906000f08015801562000c2a573d6000803e3d6000fd5b50905080600460008373ffffffffffffffffffffffffffffffffffffffff1673ffffffffffffffffffffffffffffffffffffffff16815260200190815260200160002060006101000a81548173ffffffffffffffffffffffffffffffffffffffff021916908373ffffffffffffffffffffffffffffffffffffffff160217905550806005846040518082805190602001908083835b6020831062000ce4578051825260208201915060208101905060208303925062000cbf565b6001836020036101000a038019825116818451168082178552505050505050905001915050908152602001604051809103902060006101000a81548173ffffffffffffffffffffffffffffffffffffffff021916908373ffffffffffffffffffffffffffffffffffffffff160217905550505050565b81600073ffffffffffffffffffffffffffffffffffffffff16600460008373ffffffffffffffffffffffffffffffffffffffff1673ffffffffffffffffffffffffffffffffffffffff16815260200190815260200160002060009054906101000a900473ffffffffffffffffffffffffffffffffffffffff1673ffffffffffffffffffffffffffffffffffffffff16141562000df557600080fd5b600460008473ffffffffffffffffffffffffffffffffffffffff1673ffffffffffffffffffffffffffffffffffffffff16815260200190815260200160002060009054906101000a900473ffffffffffffffffffffffffffffffffffffffff1673ffffffffffffffffffffffffffffffffffffffff166338eada1c836040518263ffffffff1660e01b8152600401808273ffffffffffffffffffffffffffffffffffffffff1673ffffffffffffffffffffffffffffffffffffffff168152602001915050600060405180830381600087803b15801562000ed457600080fd5b505af115801562000ee9573d6000803e3d6000fd5b50505050505050565b80600073ffffffffffffffffffffffffffffffffffffffff16600460008373ffffffffffffffffffffffffffffffffffffffff1673ffffffffffffffffffffffffffffffffffffffff16815260200190815260200160002060009054906101000a900473ffffffffffffffffffffffffffffffffffffffff1673ffffffffffffffffffffffffffffffffffffffff16141562000f8d57600080fd5b600460008373ffffffffffffffffffffffffffffffffffffffff1673ffffffffffffffffffffffffffffffffffffffff16815260200190815260200160002060009054906101000a900473ffffffffffffffffffffffffffffffffffffffff1673ffffffffffffffffffffffffffffffffffffffff16631a695230336040518263ffffffff1660e01b8152600401808273ffffffffffffffffffffffffffffffffffffffff1673ffffffffffffffffffffffffffffffffffffffff168152602001915050600060405180830381600087803b1580156200106c57600080fd5b505af115801562001081573d6000803e3d6000fd5b505050505050565b80600073ffffffffffffffffffffffffffffffffffffffff16600460008373ffffffffffffffffffffffffffffffffffffffff1673ffffffffffffffffffffffffffffffffffffffff16815260200190815260200160002060009054906101000a900473ffffffffffffffffffffffffffffffffffffffff1673ffffffffffffffffffffffffffffffffffffffff1614156200112457600080fd5b600460008373ffffffffffffffffffffffffffffffffffffffff1673ffffffffffffffffffffffffffffffffffffffff16815260200190815260200160002060009054906101000a900473ffffffffffffffffffffffffffffffffffffffff1673ffffffffffffffffffffffffffffffffffffffff1663f340fa01336040518263ffffffff1660e01b8152600401808273ffffffffffffffffffffffffffffffffffffffff1673ffffffffffffffffffffffffffffffffffffffff168152602001915050600060405180830381600087803b1580156200120357600080fd5b505af115801562001218573d6000803e3d6000fd5b505050505050565b6000600460008373ffffffffffffffffffffffffffffffffffffffff1673ffffffffffffffffffffffffffffffffffffffff16815260200190815260200160002060009054906101000a900473ffffffffffffffffffffffffffffffffffffffff1673ffffffffffffffffffffffffffffffffffffffff1663d0158e2b6040518163ffffffff1660e01b815260040160206040518083038186803b158015620012c857600080fd5b505afa158015620012dd573d6000803e3d6000fd5b505050506040513d6020811015620012f457600080fd5b81019080805190602001909291905050509050919050565b81600073ffffffffffffffffffffffffffffffffffffffff16600460008373ffffffffffffffffffffffffffffffffffffffff1673ffffffffffffffffffffffffffffffffffffffff16815260200190815260200160002060009054906101000a900473ffffffffffffffffffffffffffffffffffffffff1673ffffffffffffffffffffffffffffffffffffffff161415620013a757600080fd5b600460008473ffffffffffffffffffffffffffffffffffffffff1673ffffffffffffffffffffffffffffffffffffffff16815260200190815260200160002060009054906101000a900473ffffffffffffffffffffffffffffffffffffffff1673ffffffffffffffffffffffffffffffffffffffff1663c53f29d8836040518263ffffffff1660e01b81526004018080602001828103825283818151815260200191508051906020019080838360005b838110156200147457808201518184015260208101905062001457565b50505050905090810190601f168015620014a25780820380516001836020036101000a031916815260200191505b5092505050600060405180830381600087803b158015620014c257600080fd5b505af1158015620014d7573d6000803e3d6000fd5b50505050505050565b81600073ffffffffffffffffffffffffffffffffffffffff16600460008373ffffffffffffffffffffffffffffffffffffffff1673ffffffffffffffffffffffffffffffffffffffff16815260200190815260200160002060009054906101000a900473ffffffffffffffffffffffffffffffffffffffff1673ffffffffffffffffffffffffffffffffffffffff1614156200157b57600080fd5b600460008473ffffffffffffffffffffffffffffffffffffffff1673ffffffffffffffffffffffffffffffffffffffff16815260200190815260200160002060009054906101000a900473ffffffffffffffffffffffffffffffffffffffff1673ffffffffffffffffffffffffffffffffffffffff16636f7a317583336040518363ffffffff1660e01b815260040180831515151581526020018273ffffffffffffffffffffffffffffffffffffffff1673ffffffffffffffffffffffffffffffffffffffff16815260200192505050600060405180830381600087803b1580156200166657600080fd5b505af11580156200167b573d6000803e3d6000fd5b50505050505050565b60006005826040518082805190602001908083835b60208310620016be578051825260208201915060208101905060208303925062001699565b6001836020036101000a038019825116818451168082178552505050505050905001915050908152602001604051809103902060009054906101000a900473ffffffffffffffffffffffffffffffffffffffff169050919050565b82600073ffffffffffffffffffffffffffffffffffffffff16600460008373ffffffffffffffffffffffffffffffffffffffff1673ffffffffffffffffffffffffffffffffffffffff16815260200190815260200160002060009054906101000a900473ffffffffffffffffffffffffffffffffffffffff1673ffffffffffffffffffffffffffffffffffffffff161415620017b457600080fd5b600460008573ffffffffffffffffffffffffffffffffffffffff1673ffffffffffffffffffffffffffffffffffffffff16815260200190815260200160002060009054906101000a900473ffffffffffffffffffffffffffffffffffffffff1673ffffffffffffffffffffffffffffffffffffffff166371e6cc558433856040518463ffffffff1660e01b815260040180806020018473ffffffffffffffffffffffffffffffffffffffff1673ffffffffffffffffffffffffffffffffffffffff168152602001838152602001828103825285818151815260200191508051906020019080838360005b83811015620018bb5780820151818401526020810190506200189e565b50505050905090810190601f168015620018e95780820380516001836020036101000a031916815260200191505b50945050505050600060405180830381600087803b1580156200190b57600080fd5b505af115801562001920573d6000803e3d6000fd5b5050505050505050565b606082600073ffffffffffffffffffffffffffffffffffffffff16600460008373ffffffffffffffffffffffffffffffffffffffff1673ffffffffffffffffffffffffffffffffffffffff16815260200190815260200160002060009054906101000a900473ffffffffffffffffffffffffffffffffffffffff1673ffffffffffffffffffffffffffffffffffffffff161415620019c757600080fd5b600460008573ffffffffffffffffffffffffffffffffffffffff1673ffffffffffffffffffffffffffffffffffffffff16815260200190815260200160002060009054906101000a900473ffffffffffffffffffffffffffffffffffffffff1673ffffffffffffffffffffffffffffffffffffffff16632607aafa846040518263ffffffff1660e01b81526004018082815260200191505060006040518083038186803b15801562001a7857600080fd5b505afa15801562001a8d573d6000803e3d6000fd5b505050506040513d6000823e3d601f19601f82011682018060405250602081101562001ab857600080fd5b81019080805164010000000081111562001ad157600080fd5b8281019050602081018481111562001ae857600080fd5b815185600182028301116401000000008211171562001b0657600080fd5b505092919050505091505092915050565b6110568062001b268339019056fe60806040526000600260146101000a81548163ffffffff021916908363ffffffff1602179055506000600d553480156200003857600080fd5b506040516200105638038062001056833981018060405260608110156200005e57600080fd5b8101908080516401000000008111156200007757600080fd5b828101905060208101848111156200008e57600080fd5b8151856001820283011164010000000082111715620000ac57600080fd5b505092919060200180519060200190929190805190602001909291905050508260009080519060200190620000e392919062000135565b508160018190555080600260006101000a81548173ffffffffffffffffffffffffffffffffffffffff021916908373ffffffffffffffffffffffffffffffffffffffff160217905550505050620001e4565b828054600181600116156101000203166002900490600052602060002090601f016020900481019282601f106200017857805160ff1916838001178555620001a9565b82800160010185558215620001a9579182015b82811115620001a85782518255916020019190600101906200018b565b5b509050620001b89190620001bc565b5090565b620001e191905b80821115620001dd576000816000905550600101620001c3565b5090565b90565b610e6280620001f46000396000f3fe6080604052600436106100a75760003560e01c80636f7a3175116100645780636f7a31751461027d57806371e6cc55146102da578063c53f29d8146103cc578063cd7193bd14610494578063d0158e2b146104bf578063f340fa0114610516576100a7565b80630e82e52a146100ac5780631a695230146100c35780632607aafa1461011457806338eada1c146101c8578063517cba9c146102195780636032474a14610244575b600080fd5b3480156100b857600080fd5b506100c161055a565b005b3480156100cf57600080fd5b50610112600480360360208110156100e657600080fd5b81019080803573ffffffffffffffffffffffffffffffffffffffff1690602001909291905050506105be565b005b34801561012057600080fd5b5061014d6004803603602081101561013757600080fd5b8101908080359060200190929190505050610719565b6040518080602001828103825283818151815260200191508051906020019080838360005b8381101561018d578082015181840152602081019050610172565b50505050905090810190601f1680156101ba5780820380516001836020036101000a031916815260200191505b509250505060405180910390f35b3480156101d457600080fd5b50610217600480360360208110156101eb57600080fd5b81019080803573ffffffffffffffffffffffffffffffffffffffff1690602001909291905050506107d2565b005b34801561022557600080fd5b5061022e610959565b6040518082815260200191505060405180910390f35b34801561025057600080fd5b50610259610963565b60405180848152602001838152602001828152602001935050505060405180910390f35b34801561028957600080fd5b506102d8600480360360408110156102a057600080fd5b81019080803515159060200190929190803573ffffffffffffffffffffffffffffffffffffffff169060200190929190505050610984565b005b3480156102e657600080fd5b506103ca600480360360608110156102fd57600080fd5b810190808035906020019064010000000081111561031a57600080fd5b82018360208201111561032c57600080fd5b8035906020019184600183028401116401000000008311171561034e57600080fd5b91908080601f016020809104026020016040519081016040528093929190818152602001838380828437600081840152601f19601f820116905080830192505050505050509192919290803573ffffffffffffffffffffffffffffffffffffffff16906020019092919080359060200190929190505050610bcd565b005b3480156103d857600080fd5b50610492600480360360208110156103ef57600080fd5b810190808035906020019064010000000081111561040c57600080fd5b82018360208201111561041e57600080fd5b8035906020019184600183028401116401000000008311171561044057600080fd5b91908080601f016020809104026020016040519081016040528093929190818152602001838380828437600081840152601f19601f820116905080830192505050505050509192919290505050610c90565b005b3480156104a057600080fd5b506104a9610ce4565b6040518082815260200191505060405180910390f35b3480156104cb57600080fd5b506104d4610d03565b604051808273ffffffffffffffffffffffffffffffffffffffff1673ffffffffffffffffffffffffffffffffffffffff16815260200191505060405180910390f35b6105586004803603602081101561052c57600080fd5b81019080803573ffffffffffffffffffffffffffffffffffffffff169060200190929190505050610d0b565b005b600360040154421115610586576000600360010160006101000a81548160ff0219169083151502179055505b600260036002015402600380600301540211156105bc576001600360050160006101000a81548160ff0219169083151502179055505b565b600360050160009054906101000a900460ff166105da57600080fd5b600260009054906101000a900473ffffffffffffffffffffffffffffffffffffffff1673ffffffffffffffffffffffffffffffffffffffff168173ffffffffffffffffffffffffffffffffffffffff161461063457600080fd5b600360060154610642610ce4565b1161064c57600080fd5b600073ffffffffffffffffffffffffffffffffffffffff16600260009054906101000a900473ffffffffffffffffffffffffffffffffffffffff1673ffffffffffffffffffffffffffffffffffffffff1614156106a857600080fd5b600260009054906101000a900473ffffffffffffffffffffffffffffffffffffffff1673ffffffffffffffffffffffffffffffffffffffff166108fc6003600601549081150290604051600060405180830381858888f19350505050158015610715573d6000803e3d6000fd5b5050565b6060600c828154811061072857fe5b906000526020600020018054600181600116156101000203166002900480601f0160208091040260200160405190810160405280929190818152602001828054600181600116156101000203166002900480156107c65780601f1061079b576101008083540402835291602001916107c6565b820191906000526020600020905b8154815290600101906020018083116107a957829003601f168201915b50505050509050919050565b600260149054906101000a900463ffffffff1663ffffffff16600154116107f857600080fd5b6002601481819054906101000a900463ffffffff168092919060010191906101000a81548163ffffffff021916908363ffffffff1602179055505061083b610d68565b81816000019073ffffffffffffffffffffffffffffffffffffffff16908173ffffffffffffffffffffffffffffffffffffffff168152505080600a60008473ffffffffffffffffffffffffffffffffffffffff1673ffffffffffffffffffffffffffffffffffffffff16815260200190815260200160002060008201518160000160006101000a81548173ffffffffffffffffffffffffffffffffffffffff021916908373ffffffffffffffffffffffffffffffffffffffff1602179055509050506001600b60008473ffffffffffffffffffffffffffffffffffffffff1673ffffffffffffffffffffffffffffffffffffffff16815260200190815260200160002060006101000a81548160ff0219169083151502179055505050565b6000600d54905090565b60008060006003800154600360020154600360060154925092509250909192565b8060011515600b60008373ffffffffffffffffffffffffffffffffffffffff1673ffffffffffffffffffffffffffffffffffffffff16815260200190815260200160002060009054906101000a900460ff161515146109e257600080fd5b600a60008373ffffffffffffffffffffffffffffffffffffffff1673ffffffffffffffffffffffffffffffffffffffff16815260200190815260200160002060010160036000016040518082805460018160011615610100020316600290048015610a845780601f10610a62576101008083540402835291820191610a84565b820191906000526020600020905b815481529060010190602001808311610a70575b5050915050908152602001604051809103902060009054906101000a900460ff16158015610ac15750600360010160009054906101000a900460ff165b610aca57600080fd5b6003600201600081548092919060010191905055506001600a60008473ffffffffffffffffffffffffffffffffffffffff1673ffffffffffffffffffffffffffffffffffffffff16815260200190815260200160002060010160036000016040518082805460018160011615610100020316600290048015610b835780601f10610b61576101008083540402835291820191610b83565b820191906000526020600020905b815481529060010190602001808311610b6f575b5050915050908152602001604051809103902060006101000a81548160ff0219169083151502179055508215610bc85760038001600081548092919060010191905055505b505050565b8160011515600b60008373ffffffffffffffffffffffffffffffffffffffff1673ffffffffffffffffffffffffffffffffffffffff16815260200190815260200160002060009054906101000a900460ff16151514610c2b57600080fd5b8360036000019080519060200190610c44929190610d91565b506001600360010160006101000a81548160ff0219169083151502179055504260036004018190555081610c76610ce4565b11610c8057600080fd5b8160036006018190555050505050565b600c819080600181540180825580915050906001820390600052602060002001600090919290919091509080519060200190610ccd929190610d91565b5050600d6000815480929190600101919050555050565b60003073ffffffffffffffffffffffffffffffffffffffff1631905090565b600033905090565b600260009054906101000a900473ffffffffffffffffffffffffffffffffffffffff1673ffffffffffffffffffffffffffffffffffffffff168173ffffffffffffffffffffffffffffffffffffffff1614610d6557600080fd5b50565b6040518060200160405280600073ffffffffffffffffffffffffffffffffffffffff1681525090565b828054600181600116156101000203166002900490600052602060002090601f016020900481019282601f10610dd257805160ff1916838001178555610e00565b82800160010185558215610e00579182015b82811115610dff578251825591602001919060010190610de4565b5b509050610e0d9190610e11565b5090565b610e3391905b80821115610e2f576000816000905550600101610e17565b5090565b9056fea165627a7a7230582059ee4ab71e89677771f1e550de5bf9cf56c5aa03a26c93daee9d6501a66248c50029a165627a7a72305820824c7d70902482003344535d3fe60d6ceaba6a44440da8909833f15c6b1a489f0029",
  "source": "pragma solidity ^0.5.0;\r\n\r\nimport './newUniv.sol';\r\n\r\ncontract UnivLedger{\r\n\r\n    address payable owner;\r\n    uint entryFee = 1 ether;\r\n    uint representativeNum; // ( +  ) \r\n\r\n    address[] private studentAddresses;\r\n\r\n    //      modifier\r\n    mapping(address => newUniv) UnivAddToInfo;\r\n    mapping(string => address) UnivNameToAdd;\r\n\r\n    modifier onlyRegisterUniv(address _univAdd) {\r\n        require(address(UnivAddToInfo[_univAdd])!=address(0));\r\n        _;\r\n    }\r\n\r\n    //            \r\n    constructor() public {\r\n        owner=msg.sender;\r\n    }\r\n\r\n    function registerUniv(string memory _UnivName, uint _representativeNum) public payable {\r\n        require(msg.value>=entryFee);\r\n        newUniv univ = new newUniv(_UnivName, _representativeNum, msg.sender);\r\n        UnivAddToInfo[address(univ)] = univ;\r\n        UnivNameToAdd[_UnivName] = address(univ);\r\n    }\r\n    \r\n    \r\n    \r\n    function getUnivAddress(string memory _UnivName) public view returns(address) {\r\n        return UnivNameToAdd[_UnivName];\r\n    }\r\n    \r\n    function child_deposit(address _univAdd) public onlyRegisterUniv(_univAdd) {\r\n        UnivAddToInfo[_univAdd].deposit(msg.sender);\r\n    }\r\n\r\n    // +      !\r\n    function child_addAddress(address _univAdd, address _studentAddress) public onlyRegisterUniv(_univAdd){\r\n        UnivAddToInfo[_univAdd].addAddress(_studentAddress);\r\n    }\r\n\r\n    // function getUnivBalance() public view returns (uint) {\r\n    //     return address(this).balance;\r\n    // }\r\n\r\n    function child_createVote(address _univAdd, string memory _votingAgenda, uint _amount) public onlyRegisterUniv(_univAdd) {\r\n        UnivAddToInfo[_univAdd].createVote(_votingAgenda, msg.sender, _amount);\r\n    }\r\n\r\n    function child_doVote(address _univAdd, bool _agree) public onlyRegisterUniv(_univAdd) {\r\n        UnivAddToInfo[_univAdd].doVote(_agree, msg.sender);\r\n    }\r\n\r\n    function child_updateVote(address _univAdd) public onlyRegisterUniv(_univAdd) {\r\n        UnivAddToInfo[_univAdd].updateVote();\r\n    }\r\n\r\n    function child_transfer(address _univAdd) public onlyRegisterUniv(_univAdd){\r\n        UnivAddToInfo[_univAdd].transfer(msg.sender);\r\n    }\r\n    \r\n    function child_voteRes(address _univAdd) public view onlyRegisterUniv(_univAdd) returns(uint,uint,uint){\r\n       return UnivAddToInfo[_univAdd].getVoteRes();\r\n    }\r\n    \r\n    function getadd(address _univAdd) public view returns(address){\r\n        return UnivAddToInfo[_univAdd].getsender();\r\n    }\r\n    \r\n    function child_registerImage(address _univAdd, string memory _hash) public onlyRegisterUniv(_univAdd) {\r\n        UnivAddToInfo[_univAdd].registerImage(_hash);\r\n    }\r\n    \r\n    function child_getImage(address _univAdd, uint _i) public view onlyRegisterUniv(_univAdd) returns (string memory) {\r\n        return UnivAddToInfo[_univAdd].getImage(_i);\r\n    }\r\n    \r\n}",
  "sourcePath": "D://founders_2019/()/ipfs_new/contracts/UnivLedger.sol",
  "compiler": {
    "name": "solc",
    "version": "0.5.8+commit.23d335f2.Emscripten.clang"
  },
  "schemaVersion": "3.0.11",
  "updatedAt": "2019-08-12T11:52:40.322Z",
  "devdoc": {
    "methods": {}
  },
  "userdoc": {
    "methods": {}
  }
}